:020000040800F2
:1000000000000220CD0B0008DD0A0008E50A000808
:10001000ED0A0008F50A0008FD0A000800000000CB
:10002000000000000000000000000000050B0008B8
:10003000130B000800000000210B00082F0B000824
:100040001D0C00081D0C00081D0C00081D0C0008EC
:100050001D0C00081D0C00081D0C00081D0C0008DC
:100060001D0C00081D0C00081D0C00081D0C0008CC
:100070001D0C00081D0C00081D0C00081D0C0008BC
:100080001D0C00081D0C00081D0C00081D0C0008AC
:100090001D0C00081D0C00081D0C00081D0C00089C
:1000A0001D0C00081D0C00081D0C00081D0C00088C
:1000B0001D0C00081D0C00081D0C00081D0C00087C
:1000C0001D0C00081D0C00081D0C00081D0C00086C
:1000D0001D0C00081D0C00081D0C00081D0C00085C
:1000E0001D0C00081D0C00081D0C00081D0C00084C
:1000F0001D0C00081D0C00081D0C00081D0C00083C
:100100001D0C00081D0C00081D0C00081D0C00082B
:100110001D0C00081D0C00081D0C00081D0C00081B
:100120001D0C00081D0C00081D0C00081D0C00080B
:100130001D0C00081D0C00081D0C00081D0C0008FB
:100140001D0C00081D0C00081D0C00081D0C0008EB
:100150001D0C00081D0C00081D0C00081D0C0008DB
:100160001D0C00081D0C00081D0C00081D0C0008CB
:100170001D0C00081D0C00081D0C000800000000EC
:080180001D0C00081D0C000815
:1001900010B5054C237833B9044B13B10448AFF3C1
:1001A00000800123237010BD5C00002000000000CF
:1001B000E82B000808B5034B1BB103490348AFF314
:1001C000008008BD0000000060000020E82B00084F
:1001D00001F0FF01102A2BDB10F0070F08D010F8F8
:1001E000013B013A8B422DD010F0070F42B3F6D1FC
:1001F000F0B441EA012141EA014122F007047FF015
:1002000000070023F0E80256083C85EA010586EA6B
:10021000010685FA47F5A3FA87F586FA47F6A5FAA7
:1002200087F68EB9EED1F0BC01F0FF0102F00702B3
:1002300032B110F8013B013A83EA010313B1F8D15E
:100240000020704701387047002D06BF354603383F
:10025000073815F0010F07D1013015F4807F02BF78
:10026000013015F4C03F0130F0BC0138704700BFC9
:1002700053B94AB9002908BF00281CBF4FF0FF310D
:100280004FF0FF3000F06AB9ADF1080C6DE904CE13
:1002900000F006F8DDF804E0DDE9022304B0704761
:1002A0002DE9F047089D0C46002B4ED194468C4515
:1002B0008646B2FA82F262D94AB1C2F12003914075
:1002C00020FA03F30CFA02FC194300FA02FE4FEA8B
:1002D0001C471FFA8CF6B1FBF7F44FEA1E4307FBED
:1002E000141143EA014304FB06F199420AD91CEBBD
:1002F000030304F1FF3080F01281994240F20F8134
:10030000023C6344591A1FFA8EF3B1FBF7F007FB66
:10031000101143EA014300FB06F69E420AD91CEB8A
:10032000030300F1FF3180F0FC809E4240F2F9802F
:10033000634402389B1B40EA044000211DB1D340B6
:100340000022C5E90032BDE8F0878B4205D90DB126
:10035000C5E9000100210846F5E7B3FA83F1002959
:1003600046D1A34202D39042C0F0F080861A64EBDB
:1003700003030120002DE6D0C5E90063E3E7002A6E
:1003800040F09080A1EB0C044FEA1C481FFA8CF758
:100390000121B4FBF8F64FEA1E4308FB164443EA7A
:1003A000044307FB06F0984208D91CEB030306F14F
:1003B000FF3402D2984200F2CD8026461C1A1FFA62
:1003C0008EF3B4FBF8F008FB104443EA044300FB4F
:1003D00007F79F4208D91CEB030300F1FF3402D258
:1003E0009F4200F2B0802046DB1B40EA0640A5E7B2
:1003F000C1F120068B4022FA06F71F4320FA06FCC3
:1004000004FA01F343EA0C03F44000FA01F8380C53
:100410004FEA1349B4FBF0FE1FFA87FC00FB1E44B1
:1004200049EA04440EFB0CF9A14502FA01F20AD98B
:100430003C190EF1FF3A80F08480A14540F28180A2
:10044000AEF1020E3C44A4EB09041FFA83F9B4FB9D
:10045000F0F300FB134449EA044403FB0CFCA445FD
:1004600007D93C1903F1FF3067D2A44565D9023B97
:100470003C4443EA0E40A0FB0293A4EB0C049C42D4
:10048000CE469C4651D34ED055B1B8EB0E0364EB2B
:100490000C0404FA06F6CB401E43CC40C5E90064C8
:1004A000002150E7C2F1200320FA03F10CFA02FC0C
:1004B00024FA03F394400C434FEA1C4800FA02FE6E
:1004C0001FFA8CF7B3FBF8F008FB1031230C43EA5A
:1004D000014300FB07F1994208D91CEB030300F12B
:1004E000FF362CD299422AD9023863445B1AA4B24F
:1004F000B3FBF8F108FB113344EA034401FB07F3B3
:10050000A34208D91CEB040401F1FF3613D2A34225
:1005100011D902396444E41A41EA004139E704463A
:10052000F0E6084606E7C845AED2B9EB020E63EB2B
:10053000070C0138A8E73146EDE7034699E7304656
:10054000D4E7D6467FE7634402384DE706462346A4
:1005500008460FE7023E634430E700BF704700BF24
:1005600080B500AF142000F0CDFB022000F012F89F
:10057000282000F00FF80C2000F00CF8062000F006
:1005800009F8012000F006F8022000F0BBFB00BFD4
:1005900080BD000080B582B000AF0346FB71002231
:1005A0000221084800F054FEFB791B09DBB2184613
:1005B00000F05EF8FB79184600F05AF800BF0837E3
:1005C000BD4680BD000C024080B582B000AF03463E
:1005D000FB7101220221084800F03AFEFB791B0959
:1005E000DBB2184600F044F8FB79184600F040F8FA
:1005F00000BF0837BD4680BD000C024080B582B008
:1006000000AF786006E07B685A1C7A601B78184659
:10061000FFF7DAFF7B681B78002BF4D100BF00BF27
:100620000837BD4680BD80B584B000AF03460A469A
:10063000FB711346BB71FB79002B03D1BB79803B67
:10064000DBB202E0BB79403BDBB2FB73FB7B1846BD
:10065000FFF7A0FF00BF1037BD4680BD80B500AFDB
:100660000120FFF797FF022000F04CFB00BF80BD88
:1006700080B582B000AF0346FB71FB7903F0010344
:10068000DBB21A460421154800F0E2FDFB795B0855
:10069000DBB203F00103DBB21A4608210F4800F079
:1006A000D7FDFB799B08DBB203F00103DBB21A46EE
:1006B00010210A4800F0CCFDFB79DB08DBB203F027
:1006C0000103DBB21A462021044800F0C1FD00F00E
:1006D00007F800BF0837BD4680BD00BF000C0240D0
:1006E00080B500AF01220121074800F0B1FD0120D3
:1006F00000F008FB00220121034800F0A9FD0120C1
:1007000000F000FB00BF80BD000C024080B500AFD0
:10071000164B08221A70154B28225A70134B0022D0
:100720009A70124B0022DA7000221049104801F032
:1007300032FB0346002B01D000F078F90D4B072265
:100740001A700C4B03225A700A4B09229A70094BFB
:100750001922DA7000220749054801F014FC03460B
:10076000002B01D000F062F900BF80BD980000208E
:1007700078000020AC00002080B588B002AF0022D5
:100780001C491D4801F0A1FB00221C491A4801F038
:100790007EFC184B1B781A46164B5B781946154B96
:1007A0009B78381D00930B46154901F07DFD002113
:1007B0000020FFF738FF3B1D1846FFF71FFF0F4BC8
:1007C0009B781A460D4B5B7819460C4BDB78381D2D
:1007D00000930B460B4901F067FD00210120FFF754
:1007E00022FF3B1D1846FFF709FF00BF1837BD4623
:1007F00080BD00BF9800002078000020AC000020E1
:10080000002C0008182C000880B500AF00F008FA92
:1008100000F020F800F0D8F800F07CF8FFF7A0FE18
:1008200000210020FFF7FFFE0948FFF7E7FE4FF425
:100830007A7000F067FAFFF711FFFFF767FFFFF725
:100840009BFF4FF47A7000F05DFA00BFF7E700BF3E
:10085000302C000880B594B000AF07F1200330229F
:100860000021184601F040FD07F10C0300221A6038
:100870005A609A60DA601A610023BB60234B1B6CDC
:10088000224A43F080531364204B1B6C03F08053C7
:10089000BB60BB6800237B601D4B1B681C4A43F494
:1008A000804313601A4B1B6803F480437B607B68B2
:1008B0000A233B620123FB6210233B6301237B631A
:1008C0000023BB6307F12003184600F0DBFC03465E
:1008D000002B01D000F0AAF80F23FB6000233B613E
:1008E00000237B610023BB610023FB6107F10C0344
:1008F0000021184600F03EFF0346002B01D000F017
:1009000095F800BF5037BD4680BD00BF003802409B
:100910000070004080B586B000AF3B1D00221A6019
:100920005A609A60DA601A6100233B60244B254AC2
:100930001A60234B00225A60214B7F229A60204B81
:10094000FF22DA601E4B00221A611D4B00225A6101
:100950001B4B00229A611A4801F09AF90346002BBA
:1009600001D000F063F800233B7100237B7100236A
:10097000BB7100233B6100237B613B1D01221946B3
:100980000F4801F008FA0346002B01D000F04EF8A2
:1009900001233B7001237B700123BB700023FB709C
:1009A0003B4601221946064801F0EDFA0346002BAA
:1009B00001D000F03BF800BF1837BD4680BD00BF36
:1009C000780000200028004080B586B000AF3B1DB5
:1009D00000221A605A609A60DA601A6100233B6054
:1009E000104B1B6B0F4A43F0080313630D4B1B6B3B
:1009F00003F008033B603B6800223F210A4800F0F7
:100A000027FC3F237B600123BB600023FB600023A6
:100A10003B613B1D1946044800F07EFA00BF1837C1
:100A2000BD4680BD00380240000C024080B400AFDB
:100A300072B600BF00BFFDE780B483B000AF0023F3
:100A40007B60104B5B6C0F4A43F4804353640D4B47
:100A50005B6C03F480437B607B6800233B60094B45
:100A60001B6C084A43F080531364064B1B6C03F065
:100A700080533B603B6800BF0C37BD465DF8047B8C
:100A8000704700BF0038024080B586B000AF786084
:100A900007F1080300221A605A609A60DA607B68E6
:100AA0001B680C4A934211D10223BB604FF40073C0
:100AB0007B6107F10803184601F008F80346002B94
:100AC00001D0FFF7B3FF044B01221A6000BF1837B3
:100AD000BD4680BD002800403C0E474280B400AFB8
:100AE00000BFFDE780B400AF00BFFDE780B400AFFA
:100AF00000BFFDE780B400AF00BFFDE780B400AFEA
:100B000000BFFDE780B400AF00BFBD465DF8047BC9
:100B1000704780B400AF00BFBD465DF8047B7047EE
:100B200080B400AF00BFBD465DF8047B704780B560
:100B300000AF00F0C7F800BF80BD000080B586B0F0
:100B400000AF7860144A154BD31A7B617B693B6117
:100B5000134B1B68002B02D1114B124A1A60104B29
:100B60001A687B6813443A699A4207D201F0C4FBC1
:100B700003460C221A604FF0FF3309E0084B1B6854
:100B8000FB60074B1A687B681344054A1360FB68D7
:100B900018461837BD4680BD000002200004000042
:100BA000B00000200002002080B400AF064BD3F854
:100BB0008830054A43F47003C2F8883000BFBD4650
:100BC0005DF8047B704700BF00ED00E0DFF834D033
:100BD000FFF7EAFF0C480D490D4A002302E0D45804
:100BE000C4500433C4188C42F9D30A4A0A4C002377
:100BF00001E013600432A242FBD301F083FBFFF754
:100C000003FE704700000220000000205C0000206E
:100C1000882C00085C00002000020020FEE7000095
:100C200080B500AF0E4B1B680D4A43F40073136090
:100C30000B4B1B680A4A43F480631360084B1B6824
:100C4000074A43F480731360032000F031F90F204A
:100C500000F008F8FFF7F0FE0023184680BD00BF43
:100C6000003C024080B582B000AF7860124B1A6839
:100C7000124B1B7819464FF47A73B3FBF1F3B2FBB6
:100C8000F3F3184600F03BF90346002B01D0012393
:100C90000EE07B680F2B0AD8002279684FF0FF30F6
:100CA00000F011F9064A7B681360002300E001237D
:100CB00018460837BD4680BD00000020080000200F
:100CC0000400002080B400AF064B1B781A46064B88
:100CD0001B681344044A136000BFBD465DF8047BE3
:100CE000704700BF08000020B400002080B400AFAF
:100CF000034B1B681846BD465DF8047B704700BF78
:100D0000B400002080B584B000AF7860FFF7EEFF3C
:100D1000B8607B68FB60FB68B3F1FF3F05D00A4B0E
:100D20001B781A46FB681344FB6000BFFFF7DEFF29
:100D30000246BB68D31AFA689A42F7D800BF00BFD0
:100D40001037BD4680BD00BF0800002080B485B0CC
:100D500000AF78607B6803F00703FB600C4BDB6837
:100D6000BB60BA684FF6FF031340BB60FB681A0212
:100D7000BB68134343F0BF6343F40033BB60044AD2
:100D8000BB68D36000BF1437BD465DF8047B704775
:100D900000ED00E080B400AF044BDB681B0A03F0F9
:100DA00007031846BD465DF8047B704700ED00E080
:100DB00080B483B000AF03463960FB7197F9073008
:100DC000002B0ADB3B68DAB20C4997F907301201B5
:100DD000D2B20B4483F800230AE03B68DAB2084938
:100DE000FB7903F00F03043B1201D2B20B441A76D5
:100DF00000BF0C37BD465DF8047B704700E100E0A2
:100E000000ED00E080B489B000AFF860B9607A60AE
:100E1000FB6803F00703FB61FB69C3F10703042BC5
:100E200028BF0423BB61FB690433062B02D9FB698D
:100E3000033B00E000237B614FF0FF32BB6902FA05
:100E400003F3DA43BB681A407B699A404FF0FF31E5
:100E50007B6901FA03F3D9437B680B4013431846BF
:100E60002437BD465DF8047B7047000080B582B032
:100E700000AF78607B68013BB3F1807F01D3012331
:100E80000FE00A4A7B68013B53600F214FF0FF30AF
:100E9000FFF78EFF054B00229A60044B07221A6071
:100EA000002318460837BD4680BD00BF10E000E0B3
:100EB00080B582B000AF78607868FFF747FF00BF69
:100EC0000837BD4680BD80B586B000AF0346B96027
:100ED0007A60FB7300237B61FFF75CFF78617A68BF
:100EE000B9687869FFF78EFF024697F90F3011460F
:100EF0001846FFF75DFF00BF1837BD4680BD80B5BF
:100F000082B000AF78607868FFF7B0FF03461846FC
:100F10000837BD4680BD000080B489B000AF78605E
:100F2000396000237B6100233B610023BB61002308
:100F3000FB616BE10122FB6902FA03F37B613B6811
:100F40001B687A6913403B613A697B699A4240F0B9
:100F50005A813B685B6803F00303012B05D03B68B3
:100F60005B6803F00303022B30D17B689B68BB6195
:100F7000FB695B00032202FA03F3DB43BA69134007
:100F8000BB613B68DA68FB695B0002FA03F3BA698C
:100F90001343BB617B68BA699A607B685B68BB611D
:100FA0000122FB6902FA03F3DB43BA691340BB6118
:100FB0003B685B681B0903F00102FB6902FA03F35B
:100FC000BA691343BB617B68BA695A603B685B6866
:100FD00003F00303032B17D07B68DB68BB61FB695D
:100FE0005B00032202FA03F3DB43BA691340BB61DF
:100FF0003B689A68FB695B0002FA03F3BA69134322
:10100000BB617B68BA69DA603B685B6803F0030325
:10101000022B23D1FB69DA087B68083253F82230AF
:10102000BB61FB6903F007039B000F2202FA03F385
:10103000DB43BA691340BB613B681A69FB6903F083
:1010400007039B0002FA03F3BA691343BB61FB6910
:10105000DA087B680832B96943F822107B681B689C
:10106000BB61FB695B00032202FA03F3DB43BA694D
:101070001340BB613B685B6803F00302FB695B00E4
:1010800002FA03F3BA691343BB617B68BA691A6059
:101090003B685B6803F44033002B00F0B48000230E
:1010A000FB60604B5B6C5F4A43F4804353645D4B71
:1010B0005B6C03F48043FB60FB685B4AFB699B0845
:1010C000023352F82330BB61FB6903F003039B003A
:1010D0000F2202FA03F3DB43BA691340BB617B685A
:1010E000524A93422BD07B68514A934225D07B6869
:1010F000504A93421FD07B684F4A934219D07B6875
:101100004E4A934213D07B684D4A93420DD07B6880
:101110004C4A934207D07B684B4A934201D1072344
:101120000EE008230CE006230AE0052308E0042370
:1011300006E0032304E0022302E0012300E0002391
:10114000FA6902F0030292009340BA691343BB614B
:101150003549FB699B080233BA6941F823203B4BB0
:101160009B68BB613B69DB43BA691340BB613B6869
:101170005B6803F48013002B03D0BA693B69134307
:10118000BB61324ABB699360304BDB68BB613B6932
:10119000DB43BA691340BB613B685B6803F400132F
:1011A000002B03D0BA693B691343BB61274ABB6973
:1011B000D360264B5B68BB613B69DB43BA69134074
:1011C000BB613B685B6803F40033002B03D0BA6952
:1011D0003B691343BB611D4ABB6953601B4B1B68D2
:1011E000BB613B69DB43BA691340BB613B685B6829
:1011F00003F48033002B03D0BA693B691343BB610E
:10120000124ABB691360FB690133FB61FB690F2B59
:101210007FF690AE00BF00BF2437BD465DF8047B6B
:10122000704700BF00380240003801400000024013
:101230000004024000080240000C0240001002407E
:101240000014024000180240001C0240003C014013
:1012500080B483B000AF78600B467B8013467B7010
:101260007B78002B03D07A887B689A6103E07B88C7
:101270001A047B689A6100BF0C37BD465DF8047B99
:101280007047000080B586B000AF78607B68002BA7
:1012900001D1012367E27B681B6803F00103002B87
:1012A00075D0884B9B6803F00C03042B0CD0854B46
:1012B0009B6803F00C03082B12D1824B5B6803F48C
:1012C0008003B3F5800F0BD17E4B1B6803F4003312
:1012D000002B5BD07B685B68002B57D1012342E277
:1012E0007B685B68B3F5803F06D1764B1B68754A17
:1012F00043F4803313601DE07B685B68B3F5A02F77
:101300000CD1704B1B686F4A43F4802313606D4B04
:101310001B686C4A43F4803313600BE0694B1B6815
:10132000684A23F480331360664B1B68654A23F4D4
:10133000802313607B685B68002B13D0FFF7D6FC1B
:10134000386108E0FFF7D2FC02463B69D31A642BF0
:1013500001D9032307E25B4B1B6803F40033002B26
:10136000F0D014E0FFF7C2FC386108E0FFF7BEFCE4
:1013700002463B69D31A642B01D90323F3E1514B95
:101380001B6803F40033002BF0D100E000BF7B6842
:101390001B6803F00203002B63D04A4B9B6803F0E9
:1013A0000C03002B0BD0474B9B6803F00C03082B5E
:1013B0001CD1444B5B6803F48003002B16D1414BD6
:1013C0001B6803F00203002B05D07B68DB68012B50
:1013D00001D00123C7E13B4B1B6823F0F8027B6877
:1013E0001B69DB00374913430B603AE07B68DB681D
:1013F000002B20D0344B01221A60FFF777FC3861B4
:1014000008E0FFF773FC02463B69D31A022B01D9AF
:101410000323A8E12B4B1B6803F00203002BF0D041
:10142000284B1B6823F0F8027B681B69DB00254909
:1014300013430B6015E0244B00221A60FFF756FCA3
:10144000386108E0FFF752FC02463B69D31A022BD1
:1014500001D9032387E11B4B1B6803F00203002B18
:10146000F0D17B681B6803F00803002B36D07B6843
:101470005B69002B16D0154B01221A60FFF736FC72
:10148000386108E0FFF732FC02463B69D31A022BB1
:1014900001D9032367E10B4B5B6F03F00203002BC1
:1014A000F0D01BE0094B00221A60FFF71FFC3861E7
:1014B0000EE0FFF71BFC02463B69D31A022B07D94B
:1014C000032350E10038024000004742800E4742AB
:1014D000884B5B6F03F00203002BEAD17B681B682B
:1014E00003F00403002B00F097800023FB75814B71
:1014F0001B6C03F08053002B0FD10023BB607D4B8E
:101500001B6C7C4A43F0805313647A4B1B6C03F0D2
:101510008053BB60BB680123FB75774B1B6803F4EA
:101520008073002B18D1744B1B68734A43F480738B
:101530001360FFF7DBFB386108E0FFF7D7FB0246DB
:101540003B69D31A022B01D903230CE16A4B1B68B8
:1015500003F48073002BF0D07B689B68012B06D1CD
:10156000644B1B6F634A43F0010313671CE07B6805
:101570009B68052B0CD15F4B1B6F5E4A43F0040345
:1015800013675C4B1B6F5B4A43F0010313670BE06F
:10159000584B1B6F574A23F001031367554B1B6FC2
:1015A000544A23F0040313677B689B68002B15D013
:1015B000FFF79CFB38610AE0FFF798FB02463B69A6
:1015C000D31A41F28832934201D90323CBE0494B2D
:1015D0001B6F03F00203002BEED014E0FFF786FB35
:1015E00038610AE0FFF782FB02463B69D31A41F2F9
:1015F0008832934201D90323B5E03E4B1B6F03F0C1
:101600000203002BEED1FB7D012B05D1394B1B6C66
:10161000384A23F0805313647B689B69002B00F0E9
:10162000A180344B9B6803F00C03082B5CD07B68D3
:101630009B69022B41D1314B00221A60FFF756FB08
:10164000386108E0FFF752FB02463B69D31A022BD0
:1016500001D9032387E0274B1B6803F00073002B9D
:10166000F0D17B68DA697B681B6A1A437B685B6A26
:101670009B011A437B689B6A5B08013B1B041A436E
:101680007B68DB6A1B061B4913434B601B4B012223
:101690001A60FFF72BFB386108E0FFF727FB0246D3
:1016A0003B69D31A022B01D903235CE0114B1B6861
:1016B00003F00073002BF0D054E0104B00221A60AE
:1016C000FFF714FB386108E0FFF710FB02463B69A7
:1016D000D31A022B01D9032345E0064B1B6803F004
:1016E0000073002BF0D13DE07B689B69012B07D193
:1016F000012338E00038024000700040600047429B
:101700001B4B5B68FB607B689B69012B28D0FB68E7
:1017100003F480027B68DB699A4221D1FB6803F005
:101720003F027B681B6A9A421AD1FA6847F6C07377
:1017300013407A68526A9201934211D1FB6803F414
:1017400040327B689B6A5B08013B1B049A4207D1CD
:10175000FB6803F070627B68DB6A1B069A4201D06B
:10176000012300E0002318461837BD4680BD00BFA6
:101770000038024080B584B000AF786039607B6883
:10178000002B01D10123CCE0684B1B6803F0070359
:101790003A689A420CD9654B3A68D2B21A70634BD8
:1017A0001B6803F007033A689A4201D00123B8E0AE
:1017B0007B681B6803F00203002B20D07B681B684A
:1017C00003F00403002B05D0594B9B68584A43F49F
:1017D000E05393607B681B6803F00803002B05D07F
:1017E000534B9B68524A43F460439360504B9B6851
:1017F00023F0F0027B689B684D4913438B607B6844
:101800001B6803F00103002B44D07B685B68012B4D
:1018100007D1474B1B6803F40033002B19D1012378
:101820007FE07B685B68022B03D07B685B68032BDF
:1018300007D13F4B1B6803F00073002B09D1012334
:101840006FE03B4B1B6803F00203002B01D1012327
:1018500067E0374B9B6823F003027B685B68344981
:1018600013438B60FFF742FAF8600AE0FFF73EFA95
:101870000246FB68D31A41F28832934201D903230E
:101880004FE02B4B9B6803F00C027B685B689B006E
:101890009A42EBD1254B1B6803F007033A689A4242
:1018A0000CD2224B3A68D2B21A70204B1B6803F05C
:1018B00007033A689A4201D0012332E07B681B6833
:1018C00003F00403002B08D0194B9B6823F4E0526B
:1018D0007B68DB68164913438B607B681B6803F0E9
:1018E0000803002B09D0124B9B6823F460427B68ED
:1018F0001B69DB000E4913438B6000F021F80246A0
:101900000B4B9B681B0903F00F030A49CB5C22FABF
:1019100003F3094A1360094B1B681846FFF7A2F945
:10192000002318461037BD4680BD00BF003C024072
:1019300000380240342C0008000000200400002081
:101940002DE9B04F90B000AF00237B630023FB6311
:1019500000233B630023BB63594B9B6803F00C03DC
:10196000082B0DD0082B00F2A180002B02D0042BF5
:1019700003D09BE0534BBB639BE0534BBB6398E0AE
:101980004F4B5B6803F03F037B634D4B5B6803F495
:101990008003002B28D04A4B5B689B0900223B62E6
:1019A0007A623B6AC3F308000021474B03FB01F254
:1019B000002300FB03F31344434AA0FB0212FA6224
:1019C0000A46BA62FA6A1344FB627B6B0022BB616F
:1019D000FA61D7E90623D7E90A01FEF749FC024676
:1019E0000B461346FB6353E0354B5B689B090022B3
:1019F0003B617A613B69C3F3080A4FF0000B524622
:101A00005B464FF000004FF00001590141EAD261FE
:101A1000500102460B46B2EB0A0863EB0B094FF08C
:101A200000024FF000034FEA891343EA98634FEA3C
:101A30008812B2EB080463EB09054FF000024FF087
:101A40000003EB0043EA5473E20014461D4614EB16
:101A50000A033B6045EB0B037B604FF000024FF045
:101A60000003D7E9004529468B02214643EA9153FA
:101A700021468A02104619467B6B0022BB60FA6041
:101A8000D7E90223FEF7F4FB02460B461346FB633D
:101A90000B4B5B681B0C03F0030301335B003B63E0
:101AA000FA6B3B6BB2FBF3F3BB6302E0054BBB632A
:101AB00000BFBB6B18464037BD46BDE8B08F00BFC6
:101AC000003802400024F40040787D0180B586B0E3
:101AD00000AF786000237B6100233B617B681B685B
:101AE00003F00103002B05D17B681B6803F004039E
:101AF000002B35D0624B00221A60FFF7F7F87861AF
:101B000008E0FFF7F3F802467B69D31A022B01D9EC
:101B10000323B0E05B4B1B6803F00063002BF0D1A4
:101B20007B685B689A017B689B681B075549134378
:101B3000C1F88430524B01221A60FFF7D7F8786160
:101B400008E0FFF7D3F802467B69D31A022B01D9CC
:101B5000032390E04B4B1B6803F00063002BF0D095
:101B60007B681B6803F00203002B00F083800023D6
:101B7000FB60444B1B6C434A43F080531364414B5E
:101B80001B6C03F08053FB60FB683F4B1B683E4AB5
:101B900043F480731360FFF7A9F8786108E0FFF75A
:101BA000A5F802467B69D31A022B01D9032362E010
:101BB000354B1B6803F48073002BF0D0314B1B6F47
:101BC00003F440733B613B69002B2FD07B68DB68DB
:101BD00003F440733A699A4228D02A4B1B6F23F4CE
:101BE00040733B61294B01221A60284B00221A6086
:101BF000244A3B691367234B1B6F03F00103012B3E
:101C000014D1FFF773F878610AE0FFF76FF8024626
:101C10007B69D31A41F28832934201D903232AE027
:101C2000184B1B6F03F00203002BEED07B68DB68C0
:101C300003F44073B3F5407F0DD1124B9B6823F43E
:101C4000F8127B68DB6823F0704323F440730D497E
:101C500013438B6005E00B4B9B680A4A23F4F8138F
:101C60009360084B1A6F7B68DB68C3F30B0305496D
:101C700013430B67002318461837BD4680BD00BFCD
:101C8000680047420038024000700040400E474262
:101C900080B584B000AF78600123FB737B68002BB4
:101CA00001D1012373E07B685B7FDBB2002B05D1A0
:101CB0007B6800221A777868FEF7E6FE7B680222CE
:101CC0005A777B681B68DB6803F01003102B55D034
:101CD0007B681B68CA225A627B681B6853225A625F
:101CE000786800F049FA0346FB73FB7B002B2CD18C
:101CF0007B681B689B687A68126823F4E00323F012
:101D0000400393607B681B6899687B685A687B68AE
:101D10001B691A437B685B691A437B681B680A432B
:101D20009A607B681B687A68D2681A617B681B6856
:101D300019697B689B681A047B681B680A431A61EF
:101D4000786800F050FA0346FB73FB7B002B10D140
:101D50007B681B681A6C7B681B6822F480221A64FB
:101D60007B681B68196C7B689A697B681B680A43EF
:101D70001A647B681B68FF225A6201E00023FB7330
:101D8000FB7B002B02D17B6801225A77FB7B184634
:101D90001037BD4680BD90B587B000AFF860B96020
:101DA0007A6000237B61FB681B7F012B01D102233A
:101DB00087E0FB6801221A77FB6802225A777B686A
:101DC000002B26D1FB681B689B6803F04003002BA7
:101DD00002D1BB680022DA70BB681B78184600F09D
:101DE00027FA03461C04BB685B78184600F020FA0B
:101DF00003461B021C43BB689B78184600F018FA88
:101E0000034644EA0302BB68DB789B0513437B610E
:101E100018E0FB681B689B6803F04003002B02D1AD
:101E2000BB680022DA70BB681B781A04BB685B7859
:101E30001B021343BA6892781A43BB68DB789B0590
:101E400013437B61FB681B68CA225A62FB681B68EC
:101E500053225A62F86800F08FF90346FB74FB7C4A
:101E6000002B20D1FB681A687B6903F07F3323F0D5
:101E7000FE431360FB681B689A68FB681B6822F4CA
:101E800080229A60FB681B689968BB68DA68BB6847
:101E90001B691A43FB681B680A439A60F86800F0E4
:101EA000A2F90346FB74FB7C002B02D1FB680122E4
:101EB0005A77FB681B68FF225A62FB6800221A7778
:101EC000FB7C18461C37BD4690BD80B586B000AF80
:101ED000F860B9607A6000237B61FB681B689A6ACE
:101EE000BB685A60FB681B681B69C3F30E02BB68C2
:101EF0009A60FB681B681B6803F07F3323F0FE4386
:101F00007B617B691B0CDBB203F03F03DAB2BB6879
:101F10001A707B691B0ADBB203F07F03DAB2BB687D
:101F20005A707B69DBB203F07F03DAB2BB689A7048
:101F30007B699B0DDBB203F00103DAB2BB68DA7098
:101F40007B68002B1AD1BB681B78184600F08EF90D
:101F500003461A46BB681A70BB685B78184600F0E7
:101F600085F903461A46BB685A70BB689B781846C9
:101F700000F07CF903461A46BB689A7000231846A5
:101F80001837BD4680BD90B587B000AFF860B96026
:101F90007A6000237B61FB681B7F012B01D1022348
:101FA00071E0FB6801221A77FB6802225A777B688E
:101FB000002B0ED1BB685B7803F01003002B08D018
:101FC000BB685B7823F01003DBB20A33DAB2BB687C
:101FD0005A707B68002B1CD1BB68DB78184600F078
:101FE00027F903461C04BB685B78184600F020F90B
:101FF00003461B021C43BB689B78184600F018F987
:10200000034644EA0302BB681B785B0313437B610E
:102010000EE0BB68DB781A04BB685B781B021343D5
:10202000BA6892781A43BB681B785B0313437B61E1
:10203000FB681B68CA225A62FB681B6853225A62FB
:10204000F86800F099F80346FB74FB7C002B0CD178
:10205000FB681A687B6923F07F4323F0C003536059
:10206000F86800F0C0F80346FB74FB7C002B02D13B
:10207000FB6801225A77FB681B68FF225A62FB68E3
:1020800000221A77FB7C18461C37BD4690BD80B5F0
:1020900086B000AFF860B9607A6000237B61FB68AE
:1020A0001B685B6823F07F4323F0C0037B617B697F
:1020B0001B0CDAB2BB68DA707B691B0ADBB203F077
:1020C0001F03DAB2BB685A707B69DBB203F03F03CF
:1020D000DAB2BB689A707B695B0BDBB203F0070373
:1020E000DAB2BB681A707B68002B1AD1BB68DB7848
:1020F000184600F0BBF803461A46BB68DA70BB68A6
:102100005B78184600F0B2F803461A46BB685A706E
:10211000BB689B78184600F0A9F803461A46BB68CE
:102120009A70002318461837BD4680BD80B584B02C
:1021300000AF78600023FB607B681B680D4ADA60A3
:10214000FEF7D4FDF86009E0FEF7D0FD0246FB681B
:10215000D31AB3F57A7F01D9032307E07B681B68A4
:10216000DB6803F02003002BEED000231846103765
:10217000BD4680BD5F7F010080B584B000AF786050
:102180000023BB600023FB737B681B68DB6803F0E4
:102190004003002B22D17B681B68DA687B681B68D0
:1021A00042F08002DA60FEF7A1FDB8600CE0FEF7B5
:1021B0009DFD0246BB68D31AB3F57A7F04D97B68CC
:1021C00004225A770123FB737B681B68DB6803F0EA
:1021D0004003002B02D1FB7B012BE8D1FB7B18468F
:1021E0001037BD4680BD80B584B000AF7860002355
:1021F000FB737B681B68DA687B681B6822F08002CF
:10220000DA607B681B689B6803F02003002B0AD10F
:102210007868FFF78BFF0346002B04D07B6804220D
:102220005A770123FB73FB7B18461037BD4680BDF0
:1022300080B485B000AF0346FB710023FB6005E06E
:10224000FB680133FB60FB790A3BFB71FB79092BCF
:10225000F6D8FB68DBB21B01DAB2FB791343DBB2C1
:1022600018461437BD465DF8047B704780B485B0CE
:1022700000AF0346FB710023FB60FB791B09DBB257
:102280001A4613469B0013445B00FB60FB68DAB2FE
:10229000FB7903F00F03DBB21344DBB218461437AB
:1022A000BD465DF8047B70470EB400B59CB01DAB15
:1022B000029006906FF00041094807910491094986
:1022C00053F8042B05910068019302A900F094F9DA
:1022D000029B00221A701CB05DF804EB03B070473B
:1022E0000C0000200802FFFF02440346934200D185
:1022F000704703F8011BF9E7014B1868704700BFEE
:102300000C00002070B50D4D0D4C641BA410002670
:10231000A64209D10B4D0C4C00F066FC641BA410C6
:102320000026A64205D170BD55F8043B98470136FA
:10233000EEE755F8043B98470136F2E7802C000899
:10234000802C0008802C0008842C000870477047FF
:1023500038B50546002941D051F8043C0C1F002B2C
:10236000B8BFE41800F0E0F81D4A136833B96360A1
:1023700014602846BDE8384000F0DCB8A34208D914
:10238000206821188B4201BF19685B680918216019
:10239000EDE71A465B680BB1A342FAD911685018F1
:1023A000A0420BD120680144501883421160E0D153
:1023B00018685B68536008441060DAE702D90C23A0
:1023C0002B60D6E7206821188B4204BF19685B6830
:1023D000636004BF091821605460CAE738BD00BFBC
:1023E000FC01002070B50F4E0C463168054611B94E
:1023F00000F0A6FB30602146284600F0A1FB431CFC
:1024000003D14FF0FF34204670BDC41C24F00304F8
:10241000A042F8D0211A284600F092FB0130F2D1F8
:10242000EFE700BFF80100202DE9F843CD1C25F0AF
:10243000030508350C2D38BF0C25002D064601DBA1
:10244000A94204D90C2333600020BDE8F883DFF8EB
:10245000D48000F069F8D8F800301C4644BB294607
:102460003046FFF7BFFF431C044658D1D8F8004060
:102470002746002F43D1002C4BD0236839463046E5
:1024800004EB030900F05CFB814542D121686D1A21
:1024900029463046FFF7A6FF01303AD023682B4487
:1024A0002360D8F800305A6862BBC8F800700FE0AB
:1024B0002268521B20D40B2A17D96119A342256028
:1024C00018BF5960636808BFC8F8001062514B60BC
:1024D000304600F02FF804F10B00231D20F0070018
:1024E000C21A1CBF1B1AA350AFE76268A3420CBFFD
:1024F000C8F800205A60EBE723466468AEE73C4624
:102500007F68B6E71A465B68A342FBD1002353609D
:10251000DEE70C233360304600F00CF894E70560EA
:10252000D6E700BFFC0100200148FFF70FBF00BF46
:10253000F40100200148FFF70ABF00BFF4010020AA
:102540002DE9F0478E681F46BE420B6882460C4656
:1025500090462DD8B1F90C2012F4906F26D0656901
:10256000096905EB4505A3EB010905EBD5757B1C56
:102570004B446D109D4238BF1D46530527D5294653
:10258000FFF752FF064660B321694A4600F0E8FAB9
:10259000A38923F4906343F08003A38126616561DE
:1025A0004E44A5EB09052660A5603E46BE4200D913
:1025B0003E4620683246414600F0A8FAA3689B1BBD
:1025C000A3602368334423600020BDE8F0872A46D7
:1025D00000F0D4FA06460028E0D121695046FFF702
:1025E000B7FE0C23CAF80030A38943F04003A3814F
:1025F0004FF0FF30E9E700002DE9F04F98468B8956
:102600001B069DB007460D46144610D50B6973B9DD
:102610004021FFF709FF2860286130B90C233B6097
:102620004FF0FF301DB0BDE8F08F40236B610023F9
:10263000099320238DF82930CDF80C803023DFF862
:102640009C818DF82A304FF0010923469A4613F8F1
:10265000012B0AB1252AF9D1BAEB040B0BD05B464A
:10266000224629463846FFF76BFF013000F0A7806D
:10267000099A5A4409929AF80030002B00F09F8082
:1026800000234FF0FF32CDE905230AF1010A04933C
:1026900007938DF853301A935446052214F8011B02
:1026A0004E48FDF795FD049AD8B9D00644BF2023C3
:1026B0008DF85330110744BF2B238DF853309AF80F
:1026C00000302A2B15D0079A544600204FF00A0CF0
:1026D000214611F8013B303B092B4BD9B0B1079291
:1026E00014E0A0EB080309FA03F313430493A24692
:1026F000D2E7039B191D1B680391002BBBBF5B42F4
:1027000042F0020207930793B8BF049223782E2B5E
:102710000AD163782A2B32D1039B1A1D1B680392BE
:1027200043EAE37302340593DFF8C0A02178032263
:102730005046FDF74DFD38B1049BA0EB0A00402246
:10274000824013430134049314F8011B24488DF88C
:1027500028100622FDF73CFD002836D0214B1BBB7C
:10276000039B073323F0070308330393099B334488
:1027700009936AE70CFB02320C460120A8E700230C
:102780000134059319464FF00A0C204610F8012B2E
:10279000303A092A03D9002BC6D00591C4E70CFBB7
:1027A000012104460123F0E703AB00932A460E4BB8
:1027B00004A93846AFF30080421C0646D6D1AB8947
:1027C0005B063FF52DAF09982CE703AB00932A4633
:1027D000054B04A9384600F079F8EDE7442C0008D1
:1027E0004E2C000800000000412500084A2C00087B
:1027F0002DE9F047164698468A680B69DDF8209067
:102800009342B8BF1346336091F8432007460C4605
:102810000AB1013333602368990642BF336802333B
:102820003360256815F0060506D104F1190AE3683E
:1028300032689B1AAB4226DC94F843302268003B96
:1028400018BF012392062BD404F1430241463846B7
:10285000C84701301ED02368226903F00603042B09
:1028600002BFE5683368ED1AA3680CBF25EAE57579
:1028700000259342C4BF9B1AED1800261A34B542B6
:102880001AD1002008E00123524641463846C84785
:10289000013003D14FF0FF30BDE8F0870135C6E7C6
:1028A000E1185A1C302081F84300224494F8451066
:1028B00082F843100233C7E70123224641463846D7
:1028C000C8470130E6D00136D9E700002DE9FF47BF
:1028D0000F7E0C9E782F914680460C469A4601F159
:1028E000430207D8622F0AD8002F00F0D280582F59
:1028F00000F0B98004F1420684F842703AE0A7F192
:102900006303152BF6D801A151F823F065290008BF
:1029100079290008F5280008F5280008F52800089E
:10292000F528000879290008F5280008F52800088E
:10293000F5280008F5280008792A0008A3290008CE
:10294000332A0008F5280008F52800089B2A00080B
:10295000F5280008A3290008F5280008F528000834
:102960003B2A000833681A1D1B68326004F14206D6
:1029700084F8423001239DE033682068191D3160DE
:10298000060601D51D6803E04506FBD5B3F90050E6
:10299000002D03DA2D236D4284F8433059480A2371
:1029A00011E021683368080653F8045B02D4490635
:1029B00048BFADB26F2F5348336014BF0A230823BA
:1029C000002184F843106668A660002EA2BF21682B
:1029D00021F0040121600DB9002E4BD01646B5FB45
:1029E000F3F103FB1157C75D06F8017D2F46BB428B
:1029F0000D46F4D9082B0BD12368DF0708D52369CE
:102A000061689942DEBF302306F8013C06F1FF36CB
:102A1000921B2261CDF800A04B4603AA21464046F6
:102A2000FFF7E6FE01304AD14FF0FF3004B0BDE8B9
:102A3000F087236843F0200323603348782784F825
:102A40004570236831681F0651F8045B02D45F06A5
:102A500048BFADB23160D90744BF43F020032360C3
:102A60001DB11023ACE72748E9E7236823F02003D2
:102A70002360F6E71646BDE7336825686169181DCF
:102A800030602E061B6801D5196002E06806FBD590
:102A90001980002323611646BCE733681A1D326093
:102AA0001E68626800213046FDF792FB08B1801B6A
:102AB000606063682361002384F84330AAE72369D8
:102AC000324649464046D0470130ADD023689B0787
:102AD00013D4E068039B9842B8BF1846A6E70123C9
:102AE000324649464046D04701309DD00135E36823
:102AF00003995B1AAB42F2DCEBE7002504F11906FF
:102B0000F5E700BF552C0008662C0008884210B578
:102B100001EB020402D98442234607D8431EA14296
:102B200008D011F8012B03F8012FF8E70244014601
:102B30008A4200D110BD13F8014D02F8014DF7E7AC
:102B400038B5064D0023044608462B60FDF7F6FF16
:102B5000431C02D12B6803B1236038BDF001002073
:102B60000A44914200F1FF3300D1704710B511F8CB
:102B7000014B03F8014F9142F9D110BD2DE9F0410D
:102B8000804615460C4621B9BDE8F0411146FFF7D5
:102B90004BBC2AB9FFF7DCFB00242046BDE8F081DE
:102BA00000F01AF88542064602D8B5EB500FF4D86B
:102BB00029464046FFF738FC07460028ECD0B542CE
:102BC0002A46214628BF3246FFF7CAFF2146404623
:102BD000FFF7BEFB3C46E0E751F8043C181F002B12
:102BE000BCBF0B58C0187047F8B500BFF8BC08BC94
:102BF0009E467047F8B500BFF8BC08BC9E467047BB
:102C000054696D653A20253032643A253032643A91
:102C10002530326400000000446174653A2025309C
:102C200032642D253032642D32302530326400007C
:102C300052544300000000000000000001020304A1
:102C400006070809232D302B2000686C4C006566B0
:102C500067454647003031323334353637383941ED
:102C60004243444546003031323334353637383903
:082C7000616263646566000007
:082C780058D5FF7F01000000A8
:042C8000B501000892
:042C840091010008B2
:102C88000024F400100000000100000010000020E3
:102C980000000000B800002020010020880100206A
:102CA800000000000000000000000000000000001C
:102CB800000000000000000000000000000000000C
:102CC80000000000000000000000000000000000FC
:0C2CD800000000000000000000000000F0
:0400000508000BCD17
:00000001FF
