:020000040800F2
:1000000000000220450A0008C1090008C9090008CB
:10001000D1090008D9090008E10900080000000022
:10002000000000000000000000000000E9090008D6
:10003000F709000800000000050A0008130A00087C
:10004000950A0008950A0008950A0008950A000814
:10005000950A0008950A0008950A0008950A000804
:10006000950A0008950A0008950A0008950A0008F4
:10007000950A0008950A0008950A0008950A0008E4
:10008000950A0008950A0008950A0008950A0008D4
:10009000950A0008950A0008950A0008950A0008C4
:1000A000950A0008950A0008950A0008950A0008B4
:1000B000950A0008950A0008950A0008950A0008A4
:1000C000950A0008950A0008950A0008950A000894
:1000D000950A0008950A0008950A0008950A000884
:1000E000950A0008950A0008950A0008950A000874
:1000F000950A0008950A0008950A0008950A000864
:10010000950A0008950A0008950A0008950A000853
:10011000950A0008950A0008950A0008950A000843
:10012000950A0008950A0008950A0008950A000833
:10013000950A0008950A0008950A0008950A000823
:10014000950A0008950A0008950A0008950A000813
:10015000950A0008950A0008950A0008950A000803
:10016000950A0008950A0008950A0008950A0008F3
:10017000950A0008950A0008950A0008000000008A
:08018000950A0008950A000829
:1001880010B5054C237833B9044B13B10448AFF3C9
:1001980000800123237010BD0C0000200000000027
:1001A800CC19000808B5034B1BB103490348AFF34A
:1001B800008008BD0000000010000020CC190008D5
:1001C80053B94AB9002908BF00281CBF4FF0FF31B6
:1001D8004FF0FF3000F06AB9ADF1080C6DE904CEBC
:1001E80000F006F8DDF804E0DDE9022304B070470A
:1001F8002DE9F047089D0C46002B4ED194468C45BE
:100208008646B2FA82F262D94AB1C2F1200391401D
:1002180020FA03F30CFA02FC194300FA02FE4FEA33
:100228001C471FFA8CF6B1FBF7F44FEA1E4307FB95
:10023800141143EA014304FB06F199420AD91CEB65
:10024800030304F1FF3080F01281994240F20F81DC
:10025800023C6344591A1FFA8EF3B1FBF7F007FB0F
:10026800101143EA014300FB06F69E420AD91CEB33
:10027800030300F1FF3180F0FC809E4240F2F980D8
:10028800634402389B1B40EA044000211DB1D3405F
:100298000022C5E90032BDE8F0878B4205D90DB1CF
:1002A800C5E9000100210846F5E7B3FA83F1002902
:1002B80046D1A34202D39042C0F0F080861A64EB84
:1002C80003030120002DE6D0C5E90063E3E7002A17
:1002D80040F09080A1EB0C044FEA1C481FFA8CF701
:1002E8000121B4FBF8F64FEA1E4308FB164443EA23
:1002F800044307FB06F0984208D91CEB030306F1F8
:10030800FF3402D2984200F2CD8026461C1A1FFA0A
:100318008EF3B4FBF8F008FB104443EA044300FBF7
:1003280007F79F4208D91CEB030300F1FF3402D200
:100338009F4200F2B0802046DB1B40EA0640A5E75A
:10034800C1F120068B4022FA06F71F4320FA06FC6B
:1003580004FA01F343EA0C03F44000FA01F8380CFC
:100368004FEA1349B4FBF0FE1FFA87FC00FB1E445A
:1003780049EA04440EFB0CF9A14502FA01F20AD934
:100388003C190EF1FF3A80F08480A14540F281804B
:10039800AEF1020E3C44A4EB09041FFA83F9B4FB46
:1003A800F0F300FB134449EA044403FB0CFCA445A6
:1003B80007D93C1903F1FF3067D2A44565D9023B40
:1003C8003C4443EA0E40A0FB0293A4EB0C049C427D
:1003D800CE469C4651D34ED055B1B8EB0E0364EBD4
:1003E8000C0404FA06F6CB401E43CC40C5E9006471
:1003F800002150E7C2F1200320FA03F10CFA02FCB5
:1004080024FA03F394400C434FEA1C4800FA02FE16
:100418001FFA8CF7B3FBF8F008FB1031230C43EA02
:10042800014300FB07F1994208D91CEB030300F1D3
:10043800FF362CD299422AD9023863445B1AA4B2F7
:10044800B3FBF8F108FB113344EA034401FB07F35B
:10045800A34208D91CEB040401F1FF3613D2A342CE
:1004680011D902396444E41A41EA004139E70446E3
:10047800F0E6084606E7C845AED2B9EB020E63EBD4
:10048800070C0138A8E73146EDE7034699E73046FF
:10049800D4E7D6467FE7634402384DE7064623464D
:1004A80008460FE7023E634430E700BF704700BFCD
:1004B80080B584B000AF0346FB71FB790F2B55D88C
:1004C800FB792C4AD35CFB73FB7B03F00103DBB2A3
:1004D8001A464FF48071284800F00AFEFB7B5B1037
:1004E800DBB203F00103DBB21A464FF40071224875
:1004F80000F0FEFDFB7B9B10DBB203F00103DBB2D7
:100508001A464FF480611C4800F0F2FDFB7BDB10BB
:10051800DBB203F00103DBB21A460821174800F0EA
:10052800E7FDFB7B1B11DBB203F00103DBB21A46CC
:100538004FF40041124800F0DBFDFB7B5B11DBB29E
:1005480003F00103DBB21A464FF480410C4800F077
:10055800CFFDFB7B9B11DBB203F00103DBB21A4634
:100568004FF40051064800F0C3FD00E000BF10370B
:10057800BD4680BDEC19000800100240000402408E
:100588000000024080B584B000AF0023FB735AE03E
:1005980001224FF47061304800F0AAFD2F4A3B1D3C
:1005A80092E8030083E80300FB7B5B0010333B44C5
:1005B80033F80C3C00221946274800F099FD052025
:1005C80000F0D8FA4FF48051234800F079FD034633
:1005D800002B05D1FB7B224A12F823305BB237E0AF
:1005E8004FF400511C4800F06BFD0346002B06D168
:1005F800FB7B1B4A9B0013445B785BB228E04FF4FB
:100608008041154800F05CFD0346002B06D1FB7BBA
:10061800134A9B0013449B785BB219E04FF40041E6
:100628000D4800F04DFD0346002B06D1FB7B0C4A1C
:100638009B001344DB785BB20AE00A2000F09AFAC8
:10064800FB7B0133FB73FB7B032BA1D94FF0FF33FB
:1006580018461037BD4680BD000C0240E41900085A
:10066800FC19000880B582B000AF00F011FA00F064
:1006780043F800F09FF8002208211A4800F038FDDE
:100688000023FB7109E0FB791846FFF711FFC8202A
:1006980000F070FAFB790133FB71FB79092BF2D971
:1006A80000224FF4E061104800F022FD00221821DA
:1006B8000E4800F01DFD00224FF460410C4800F088
:1006C80017FDFFF75FFF0346DAB20A4B1A70094BB2
:1006D8001B780F2BF5D8074B1B781846FFF7E8FE59
:1006E800EFE700BF0008024000100240000402408B
:1006F800000002402800002080B594B000AF07F148
:10070800200330220021184601F030F907F10C03CC
:1007180000221A605A609A60DA601A610023BB608E
:10072800224B1B6C214A43F0805313641F4B1B6CF4
:1007380003F08053BB60BB6800237B601C4B1B68C5
:100748001B4A43F480431360194B1B6803F480432E
:100758007B607B6802233B620123FB6210233B63BF
:100768000023BB6307F12003184600F0DBFC0346B7
:10077800002B01D000F0F2F80F23FB6000233B614F
:1007880000237B610023BB610023FB6107F10C039D
:100798000021184600F03EFF0346002B01D000F070
:1007A800DDF800BF5037BD4680BD00BF00380240AD
:1007B8000070004080B58AB000AF07F11403002232
:1007C8001A605A609A60DA601A6100233B615D4BD7
:1007D8001B6B5C4A43F0040313635A4B1B6B03F017
:1007E80004033B613B690023FB60564B1B6B554A76
:1007F80043F010031363534B1B6B03F01003FB60B0
:10080800FB680023BB604F4B1B6B4E4A43F0080349
:1008180013634C4B1B6B03F00803BB60BB680023DE
:100828007B60484B1B6B474A43F001031363454BFE
:100838001B6B03F001037B607B6800233B60414B2B
:100848001B6B404A43F0020313633E4B1B6B03F0E0
:1008580002033B603B68002208213B4800F048FC4B
:1008680000224FF4E061394800F042FC00224FF4C6
:100878007061374800F03CFC00224FF46041354875
:1008880000F036FC00221821334800F031FC082320
:100898007B610123BB610023FB6100233B6207F1FD
:1008A80014031946284800F06FFA4FF4E0637B619F
:1008B8000123BB610023FB6100233B6207F11403A2
:1008C8001946224800F060FA4FF470637B610123F7
:1008D800BB610023FB6100233B6207F11403194647
:1008E8001B4800F051FA4FF470437B610023BB6151
:1008F8000123FB6107F114031946154800F044FA77
:100908004FF460437B610123BB610023FB6100233B
:100918003B6207F1140319460E4800F035FA182314
:100928007B610123BB610023FB6100233B6207F16C
:1009380014031946084800F027FA00BF2837BD46B7
:1009480080BD00BF0038024000080240001002408D
:10095800000C0240000002400004024080B400AFD6
:1009680072B600BF00BFFDE780B483B000AF0023BC
:100978007B60104B5B6C0F4A43F4804353640D4B10
:100988005B6C03F480437B607B6800233B60094B0E
:100998001B6C084A43F080531364064B1B6C03F02E
:1009A80080533B603B6800BF0C37BD465DF8047B55
:1009B800704700BF0038024080B400AF00BFFDE7B9
:1009C80080B400AF00BFFDE780B400AF00BFFDE713
:1009D80080B400AF00BFFDE780B400AF00BFFDE703
:1009E80080B400AF00BFBD465DF8047B704780B49B
:1009F80000AF00BFBD465DF8047B704780B400AF10
:100A080000BFBD465DF8047B704780B500AF00F0BD
:100A180091F800BF80BD000080B400AF064BD3F84A
:100A28008830054A43F47003C2F8883000BFBD46D9
:100A38005DF8047B704700BF00ED00E0DFF834D0BC
:100A4800FFF7EAFF0C480D490D4A002302E0D4588D
:100A5800C4500433C4188C42F9D30A4A0A4C002300
:100A680001E013600432A242FBD300F087FFFFF7D6
:100A7800F9FD704700000220000000200C00002053
:100A88002C1A00080C00002030000020FEE70000AF
:100A980080B500AF0E4B1B680D4A43F4007313601A
:100AA8000B4B1B680A4A43F480631360084B1B68AE
:100AB800074A43F480731360032000F031F90F20D4
:100AC80000F008F8FFF750FF0023184680BD00BF6C
:100AD800003C024080B582B000AF7860124B1A68C3
:100AE800124B1B7819464FF47A73B3FBF1F3B2FB40
:100AF800F3F3184600F03BF90346002B01D001231D
:100B08000EE07B680F2B0AD8002279684FF0FF307F
:100B180000F011F9064A7B681360002300E0012306
:100B280018460837BD4680BD000000200800002098
:100B38000400002080B400AF064B1B781A46064B11
:100B48001B681344044A136000BFBD465DF8047B6C
:100B5800704700BF080000202C00002080B400AFC0
:100B6800034B1B681846BD465DF8047B704700BF01
:100B78002C00002080B584B000AF7860FFF7EEFF4E
:100B8800B8607B68FB60FB68B3F1FF3F05D00A4B98
:100B98001B781A46FB681344FB6000BFFFF7DEFFB3
:100BA8000246BB68D31AFA689A42F7D800BF00BF5A
:100BB8001037BD4680BD00BF0800002080B485B056
:100BC80000AF78607B6803F00703FB600C4BDB68C1
:100BD800BB60BA684FF6FF031340BB60FB681A029C
:100BE800BB68134343F0BF6343F40033BB60044A5C
:100BF800BB68D36000BF1437BD465DF8047B7047FF
:100C080000ED00E080B400AF044BDB681B0A03F082
:100C180007031846BD465DF8047B704700ED00E009
:100C280080B483B000AF03463960FB7197F9073091
:100C3800002B0ADB3B68DAB20C4997F9073012013E
:100C4800D2B20B4483F800230AE03B68DAB20849C1
:100C5800FB7903F00F03043B1201D2B20B441A765E
:100C680000BF0C37BD465DF8047B704700E100E02B
:100C780000ED00E080B489B000AFF860B9607A6038
:100C8800FB6803F00703FB61FB69C3F10703042B4F
:100C980028BF0423BB61FB690433062B02D9FB6917
:100CA800033B00E000237B614FF0FF32BB6902FA8F
:100CB80003F3DA43BB681A407B699A404FF0FF316F
:100CC8007B6901FA03F3D9437B680B401343184649
:100CD8002437BD465DF8047B7047000080B582B0BC
:100CE80000AF78607B68013BB3F1807F01D30123BB
:100CF8000FE00A4A7B68013B53600F214FF0FF3039
:100D0800FFF78EFF054B00229A60044B07221A60FA
:100D1800002318460837BD4680BD00BF10E000E03C
:100D280080B582B000AF78607868FFF747FF00BFF2
:100D38000837BD4680BD80B586B000AF0346B960B0
:100D48007A60FB7300237B61FFF75CFF78617A6848
:100D5800B9687869FFF78EFF024697F90F30114698
:100D68001846FFF75DFF00BF1837BD4680BD80B548
:100D780082B000AF78607868FFF7B0FF0346184686
:100D88000837BD4680BD000080B489B000AF7860E8
:100D9800396000237B6100233B610023BB61002392
:100DA800FB616BE10122FB6902FA03F37B613B689B
:100DB8001B687A6913403B613A697B699A4240F043
:100DC8005A813B685B6803F00303012B05D03B683D
:100DD8005B6803F00303022B30D17B689B68BB611F
:100DE800FB695B00032202FA03F3DB43BA69134091
:100DF800BB613B68DA68FB695B0002FA03F3BA6916
:100E08001343BB617B68BA699A607B685B68BB61A6
:100E18000122FB6902FA03F3DB43BA691340BB61A1
:100E28003B685B681B0903F00102FB6902FA03F3E4
:100E3800BA691343BB617B68BA695A603B685B68EF
:100E480003F00303032B17D07B68DB68BB61FB69E6
:100E58005B00032202FA03F3DB43BA691340BB6168
:100E68003B689A68FB695B0002FA03F3BA691343AB
:100E7800BB617B68BA69DA603B685B6803F00303AF
:100E8800022B23D1FB69DA087B68083253F8223039
:100E9800BB61FB6903F007039B000F2202FA03F30F
:100EA800DB43BA691340BB613B681A69FB6903F00D
:100EB80007039B0002FA03F3BA691343BB61FB699A
:100EC800DA087B680832B96943F822107B681B6826
:100ED800BB61FB695B00032202FA03F3DB43BA69D7
:100EE8001340BB613B685B6803F00302FB695B006E
:100EF80002FA03F3BA691343BB617B68BA691A60E3
:100F08003B685B6803F44033002B00F0B480002397
:100F1800FB60604B5B6C5F4A43F4804353645D4BFA
:100F28005B6C03F48043FB60FB685B4AFB699B08CE
:100F3800023352F82330BB61FB6903F003039B00C3
:100F48000F2202FA03F3DB43BA691340BB617B68E3
:100F5800524A93422BD07B68514A934225D07B68F2
:100F6800504A93421FD07B684F4A934219D07B68FE
:100F78004E4A934213D07B684D4A93420DD07B680A
:100F88004C4A934207D07B684B4A934201D10723CE
:100F98000EE008230CE006230AE0052308E00423FA
:100FA80006E0032304E0022302E0012300E000231B
:100FB800FA6902F0030292009340BA691343BB61D5
:100FC8003549FB699B080233BA6941F823203B4B3A
:100FD8009B68BB613B69DB43BA691340BB613B68F3
:100FE8005B6803F48013002B03D0BA693B69134391
:100FF800BB61324ABB699360304BDB68BB613B69BC
:10100800DB43BA691340BB613B685B6803F40013B8
:10101800002B03D0BA693B691343BB61274ABB69FC
:10102800D360264B5B68BB613B69DB43BA691340FD
:10103800BB613B685B6803F40033002B03D0BA69DB
:101048003B691343BB611D4ABB6953601B4B1B685B
:10105800BB613B69DB43BA691340BB613B685B68B2
:1010680003F48033002B03D0BA693B691343BB6197
:10107800124ABB691360FB690133FB61FB690F2BE3
:101088007FF690AE00BF00BF2437BD465DF8047BF5
:10109800704700BF0038024000380140000002409D
:1010A8000004024000080240000C02400010024008
:1010B8000014024000180240001C0240003C01409D
:1010C80080B485B000AF78600B467B807B681A6976
:1010D8007B881340002B02D00123FB7301E000231F
:1010E800FB73FB7B18461437BD465DF8047B7047DD
:1010F80080B483B000AF78600B467B8013467B706A
:101108007B78002B03D07A887B689A6103E07B8820
:101118001A047B689A6100BF0C37BD465DF8047BF2
:101128007047000080B586B000AF78607B68002B00
:1011380001D1012367E27B681B6803F00103002BE0
:1011480075D0884B9B6803F00C03042B0CD0854B9F
:101158009B6803F00C03082B12D1824B5B6803F4E5
:101168008003B3F5800F0BD17E4B1B6803F400336B
:10117800002B5BD07B685B68002B57D1012342E2D0
:101188007B685B68B3F5803F06D1764B1B68754A70
:1011980043F4803313601DE07B685B68B3F5A02FD0
:1011A8000CD1704B1B686F4A43F4802313606D4B5E
:1011B8001B686C4A43F4803313600BE0694B1B686F
:1011C800684A23F480331360664B1B68654A23F42E
:1011D800802313607B685B68002B13D0FFF7BEFC8D
:1011E800386108E0FFF7BAFC02463B69D31A642B62
:1011F80001D9032307E25B4B1B6803F40033002B80
:10120800F0D014E0FFF7AAFC386108E0FFF7A6FC6D
:1012180002463B69D31A642B01D90323F3E1514BEE
:101228001B6803F40033002BF0D100E000BF7B689B
:101238001B6803F00203002B63D04A4B9B6803F042
:101248000C03002B0BD0474B9B6803F00C03082BB7
:101258001CD1444B5B6803F48003002B16D1414B2F
:101268001B6803F00203002B05D07B68DB68012BA9
:1012780001D00123C7E13B4B1B6823F0F8027B68D0
:101288001B69DB00374913430B603AE07B68DB6876
:10129800002B20D0344B01221A60FFF75FFC386125
:1012A80008E0FFF75BFC02463B69D31A022B01D921
:1012B8000323A8E12B4B1B6803F00203002BF0D09B
:1012C800284B1B6823F0F8027B681B69DB00254963
:1012D80013430B6015E0244B00221A60FFF73EFC15
:1012E800386108E0FFF73AFC02463B69D31A022B43
:1012F80001D9032387E11B4B1B6803F00203002B72
:10130800F0D17B681B6803F00803002B36D07B689C
:101318005B69002B16D0154B01221A60FFF71EFCE3
:10132800386108E0FFF71AFC02463B69D31A022B22
:1013380001D9032367E10B4B5B6F03F00203002B1A
:10134800F0D01BE0094B00221A60FFF707FC386158
:101358000EE0FFF703FC02463B69D31A022B07D9BC
:10136800032350E10038024000004742800E474204
:10137800884B5B6F03F00203002BEAD17B681B6884
:1013880003F00403002B00F097800023FB75814BCA
:101398001B6C03F08053002B0FD10023BB607D4BE7
:1013A8001B6C7C4A43F0805313647A4B1B6C03F02C
:1013B8008053BB60BB680123FB75774B1B6803F444
:1013C8008073002B18D1744B1B68734A43F48073E5
:1013D8001360FFF7C3FB386108E0FFF7BFFB024665
:1013E8003B69D31A022B01D903230CE16A4B1B6812
:1013F80003F48073002BF0D07B689B68012B06D127
:10140800644B1B6F634A43F0010313671CE07B685E
:101418009B68052B0CD15F4B1B6F5E4A43F004039E
:1014280013675C4B1B6F5B4A43F0010313670BE0C8
:10143800584B1B6F574A23F001031367554B1B6F1B
:10144800544A23F0040313677B689B68002B15D06C
:10145800FFF784FB38610AE0FFF780FB02463B692F
:10146800D31A41F28832934201D90323CBE0494B86
:101478001B6F03F00203002BEED014E0FFF76EFBA6
:1014880038610AE0FFF76AFB02463B69D31A41F26A
:101498008832934201D90323B5E03E4B1B6F03F01A
:1014A8000203002BEED1FB7D012B05D1394B1B6CC0
:1014B800384A23F0805313647B689B69002B00F043
:1014C800A180344B9B6803F00C03082B5CD07B682D
:1014D8009B69022B41D1314B00221A60FFF73EFB7A
:1014E800386108E0FFF73AFB02463B69D31A022B42
:1014F80001D9032387E0274B1B6803F00073002BF7
:10150800F0D17B68DA697B681B6A1A437B685B6A7F
:101518009B011A437B689B6A5B08013B1B041A43C7
:101528007B68DB6A1B061B4913434B601B4B01227C
:101538001A60FFF713FB386108E0FFF70FFB02465C
:101548003B69D31A022B01D903235CE0114B1B68BA
:1015580003F00073002BF0D054E0104B00221A6007
:10156800FFF7FCFA386108E0FFF7F8FA02463B6932
:10157800D31A022B01D9032345E0064B1B6803F05D
:101588000073002BF0D13DE07B689B69012B07D1EC
:10159800012338E0003802400070004060004742F4
:1015A8001B4B5B68FB607B689B69012B28D0FB6841
:1015B80003F480027B68DB699A4221D1FB6803F05F
:1015C8003F027B681B6A9A421AD1FA6847F6C073D1
:1015D80013407A68526A9201934211D1FB6803F46E
:1015E80040327B689B6A5B08013B1B049A4207D127
:1015F800FB6803F070627B68DB6A1B069A4201D0C5
:10160800012300E0002318461837BD4680BD00BFFF
:101618000038024080B584B000AF786039607B68DC
:10162800002B01D10123CCE0684B1B6803F00703B2
:101638003A689A420CD9654B3A68D2B21A70634B31
:101648001B6803F007033A689A4201D00123B8E007
:101658007B681B6803F00203002B20D07B681B68A3
:1016680003F00403002B05D0594B9B68584A43F4F8
:10167800E05393607B681B6803F00803002B05D0D8
:10168800534B9B68524A43F460439360504B9B68AA
:1016980023F0F0027B689B684D4913438B607B689D
:1016A8001B6803F00103002B44D07B685B68012BA7
:1016B80007D1474B1B6803F40033002B19D10123D2
:1016C8007FE07B685B68022B03D07B685B68032B39
:1016D80007D13F4B1B6803F00073002B09D101238E
:1016E8006FE03B4B1B6803F00203002B01D1012381
:1016F80067E0374B9B6823F003027B685B683449DB
:1017080013438B60FFF72AFAF8600AE0FFF726FA1E
:101718000246FB68D31A41F28832934201D9032367
:101728004FE02B4B9B6803F00C027B685B689B00C7
:101738009A42EBD1254B1B6803F007033A689A429B
:101748000CD2224B3A68D2B21A70204B1B6803F0B5
:1017580007033A689A4201D0012332E07B681B688C
:1017680003F00403002B08D0194B9B6823F4E052C4
:101778007B68DB68164913438B607B681B6803F042
:101788000803002B09D0124B9B6823F460427B6846
:101798001B69DB000E4913438B6000F021F80246F9
:1017A8000B4B9B681B0903F00F030A49CB5C22FA19
:1017B80003F3094A1360094B1B681846FFF78AF9B7
:1017C800002318461037BD4680BD00BF003C0240CC
:1017D800003802400C1A0008000000200400002015
:1017E8002DE9B04F90B000AF00237B630023FB636B
:1017F80000233B630023BB63594B9B6803F00C0336
:10180800082B0DD0082B00F2A180002B02D0042B4E
:1018180003D09BE0534BBB639BE0534BBB6398E007
:101828004F4B5B6803F03F037B634D4B5B6803F4EE
:101838008003002B28D04A4B5B689B0900223B623F
:101848007A623B6AC3F308000021474B03FB01F2AD
:10185800002300FB03F31344434AA0FB0212FA627D
:101868000A46BA62FA6A1344FB627B6B0022BB61C8
:10187800FA61D7E90623D7E90A01FEF7A1FC024677
:101888000B461346FB6353E0354B5B689B0900220C
:101898003B617A613B69C3F3080A4FF0000B52467B
:1018A8005B464FF000004FF00001590141EAD26158
:1018B800500102460B46B2EB0A0863EB0B094FF0E6
:1018C80000024FF000034FEA891343EA98634FEA96
:1018D8008812B2EB080463EB09054FF000024FF0E1
:1018E8000003EB0043EA5473E20014461D4614EB70
:1018F8000A033B6045EB0B037B604FF000024FF09F
:101908000003D7E9004529468B02214643EA915353
:1019180021468A02104619467B6B0022BB60FA609A
:10192800D7E90223FEF74CFC02460B461346FB633D
:101938000B4B5B681B0C03F0030301335B003B6339
:10194800FA6B3B6BB2FBF3F3BB6302E0054BBB6383
:1019580000BFBB6B18464037BD46BDE8B08F00BF1F
:10196800003802400024F40040787D010244034618
:10197800934200D1704703F8011BF9E770B50D4D8C
:101988000D4C641BA4100026A64209D10B4D0C4C2B
:1019980000F018F8641BA4100026A64205D170BDFB
:1019A80055F8043B98470136EEE755F8043B98474D
:1019B8000136F2E7241A0008241A0008241A00083D
:1019C800281A0008F8B500BFF8BC08BC9E46704746
:0C19D800F8B500BFF8BC08BC9E46704784
:1019E40000010002000400083F065B4F666D7D079E
:1019F4007F6F777C395E7971000102030405060765
:101A040008090A0B0C0D0E0F000000000000000076
:081A14000102030406070809A2
:081A1C00DCE7FF7F0100000080
:041A2400AD01000808
:041A28008901000828
:0C1A2C000024F400100000000100000085
:0400000508000A45A0
:00000001FF
